{
  "_format": "hh-sol-artifact-1",
  "contractName": "FreelanceJobs",
  "sourceName": "contracts/FreelanceJobs.sol",
  "abi": [
    {
      "inputs": [
        {
          "internalType": "address",
          "name": "initialOwner",
          "type": "address"
        }
      ],
      "stateMutability": "nonpayable",
      "type": "constructor"
    },
    {
      "inputs": [
        {
          "internalType": "address",
          "name": "owner",
          "type": "address"
        }
      ],
      "name": "OwnableInvalidOwner",
      "type": "error"
    },
    {
      "inputs": [
        {
          "internalType": "address",
          "name": "account",
          "type": "address"
        }
      ],
      "name": "OwnableUnauthorizedAccount",
      "type": "error"
    },
    {
      "inputs": [],
      "name": "ReentrancyGuardReentrantCall",
      "type": "error"
    },
    {
      "anonymous": false,
      "inputs": [
        {
          "indexed": true,
          "internalType": "uint256",
          "name": "jobId",
          "type": "uint256"
        },
        {
          "indexed": true,
          "internalType": "address",
          "name": "employer",
          "type": "address"
        },
        {
          "indexed": false,
          "internalType": "string",
          "name": "title",
          "type": "string"
        },
        {
          "indexed": false,
          "internalType": "string",
          "name": "description",
          "type": "string"
        },
        {
          "indexed": false,
          "internalType": "string",
          "name": "skills",
          "type": "string"
        },
        {
          "indexed": false,
          "internalType": "uint256",
          "name": "budget",
          "type": "uint256"
        },
        {
          "indexed": false,
          "internalType": "uint256",
          "name": "durationInDays",
          "type": "uint256"
        },
        {
          "indexed": false,
          "internalType": "uint256",
          "name": "stakeRequired",
          "type": "uint256"
        }
      ],
      "name": "JobPosted",
      "type": "event"
    },
    {
      "anonymous": false,
      "inputs": [
        {
          "indexed": true,
          "internalType": "address",
          "name": "previousOwner",
          "type": "address"
        },
        {
          "indexed": true,
          "internalType": "address",
          "name": "newOwner",
          "type": "address"
        }
      ],
      "name": "OwnershipTransferred",
      "type": "event"
    },
    {
      "inputs": [],
      "name": "POSTING_FEE",
      "outputs": [
        {
          "internalType": "uint256",
          "name": "",
          "type": "uint256"
        }
      ],
      "stateMutability": "view",
      "type": "function"
    },
    {
      "inputs": [
        {
          "internalType": "uint256",
          "name": "_jobId",
          "type": "uint256"
        }
      ],
      "name": "getJob",
      "outputs": [
        {
          "internalType": "uint256",
          "name": "jobId",
          "type": "uint256"
        },
        {
          "internalType": "address",
          "name": "employer",
          "type": "address"
        },
        {
          "internalType": "string",
          "name": "title",
          "type": "string"
        },
        {
          "internalType": "string",
          "name": "description",
          "type": "string"
        },
        {
          "internalType": "string",
          "name": "skills",
          "type": "string"
        },
        {
          "internalType": "uint256",
          "name": "budget",
          "type": "uint256"
        },
        {
          "internalType": "uint256",
          "name": "durationInDays",
          "type": "uint256"
        },
        {
          "internalType": "uint256",
          "name": "stakeRequired",
          "type": "uint256"
        },
        {
          "internalType": "bool",
          "name": "isPosted",
          "type": "bool"
        }
      ],
      "stateMutability": "view",
      "type": "function"
    },
    {
      "inputs": [],
      "name": "getTotalJobs",
      "outputs": [
        {
          "internalType": "uint256",
          "name": "",
          "type": "uint256"
        }
      ],
      "stateMutability": "view",
      "type": "function"
    },
    {
      "inputs": [
        {
          "internalType": "uint256",
          "name": "",
          "type": "uint256"
        }
      ],
      "name": "jobs",
      "outputs": [
        {
          "internalType": "uint256",
          "name": "jobId",
          "type": "uint256"
        },
        {
          "internalType": "address",
          "name": "employer",
          "type": "address"
        },
        {
          "internalType": "string",
          "name": "title",
          "type": "string"
        },
        {
          "internalType": "string",
          "name": "description",
          "type": "string"
        },
        {
          "internalType": "string",
          "name": "skills",
          "type": "string"
        },
        {
          "internalType": "uint256",
          "name": "budget",
          "type": "uint256"
        },
        {
          "internalType": "uint256",
          "name": "durationInDays",
          "type": "uint256"
        },
        {
          "internalType": "uint256",
          "name": "stakeRequired",
          "type": "uint256"
        },
        {
          "internalType": "bool",
          "name": "isPosted",
          "type": "bool"
        }
      ],
      "stateMutability": "view",
      "type": "function"
    },
    {
      "inputs": [],
      "name": "owner",
      "outputs": [
        {
          "internalType": "address",
          "name": "",
          "type": "address"
        }
      ],
      "stateMutability": "view",
      "type": "function"
    },
    {
      "inputs": [
        {
          "internalType": "string",
          "name": "_title",
          "type": "string"
        },
        {
          "internalType": "string",
          "name": "_description",
          "type": "string"
        },
        {
          "internalType": "string",
          "name": "_skills",
          "type": "string"
        },
        {
          "internalType": "uint256",
          "name": "_budget",
          "type": "uint256"
        },
        {
          "internalType": "uint256",
          "name": "_durationInDays",
          "type": "uint256"
        },
        {
          "internalType": "uint256",
          "name": "_stakeRequired",
          "type": "uint256"
        }
      ],
      "name": "postJob",
      "outputs": [],
      "stateMutability": "payable",
      "type": "function"
    },
    {
      "inputs": [],
      "name": "renounceOwnership",
      "outputs": [],
      "stateMutability": "nonpayable",
      "type": "function"
    },
    {
      "inputs": [
        {
          "internalType": "address",
          "name": "newOwner",
          "type": "address"
        }
      ],
      "name": "transferOwnership",
      "outputs": [],
      "stateMutability": "nonpayable",
      "type": "function"
    },
    {
      "inputs": [],
      "name": "withdrawFees",
      "outputs": [],
      "stateMutability": "nonpayable",
      "type": "function"
    }
  ],
  "bytecode": "0x608060405234801561001057600080fd5b5060405161112938038061112983398101604081905261002f916100c6565b806001600160a01b03811661005e57604051631e4fbdf760e01b81526000600482015260240160405180910390fd5b61006781610076565b505060018080556002556100f6565b600080546001600160a01b038381166001600160a01b0319831681178455604051919092169283917f8be0079c531659141344cd1fd0a4f28419497f9722a3daafe3b4186f6b6457e09190a35050565b6000602082840312156100d857600080fd5b81516001600160a01b03811681146100ef57600080fd5b9392505050565b611024806101056000396000f3fe6080604052600436106100865760003560e01c8063715018a611610059578063715018a61461011e5780637eb1d869146101335780638da5cb5b14610146578063bf22c4571461016e578063f2fde38b1461018e57600080fd5b8063180aedf31461008b5780633169f6b9146100c95780633aee7996146100f2578063476343ee14610107575b600080fd5b34801561009757600080fd5b506100ab6100a6366004610ba5565b6101ae565b6040516100c099989796959493929190610c04565b60405180910390f35b3480156100d557600080fd5b506100e46611c37937e0800081565b6040519081526020016100c0565b3480156100fe57600080fd5b506100e461039b565b34801561011357600080fd5b5061011c6103b1565b005b34801561012a57600080fd5b5061011c6104aa565b61011c610141366004610d26565b6104be565b34801561015257600080fd5b506000546040516001600160a01b0390911681526020016100c0565b34801561017a57600080fd5b506100ab610189366004610ba5565b6107db565b34801561019a57600080fd5b5061011c6101a9366004610dd6565b610ac0565b60036020526000908152604090208054600182015460028301805492936001600160a01b03909216926101e090610e06565b80601f016020809104026020016040519081016040528092919081815260200182805461020c90610e06565b80156102595780601f1061022e57610100808354040283529160200191610259565b820191906000526020600020905b81548152906001019060200180831161023c57829003601f168201915b50505050509080600301805461026e90610e06565b80601f016020809104026020016040519081016040528092919081815260200182805461029a90610e06565b80156102e75780601f106102bc576101008083540402835291602001916102e7565b820191906000526020600020905b8154815290600101906020018083116102ca57829003601f168201915b5050505050908060040180546102fc90610e06565b80601f016020809104026020016040519081016040528092919081815260200182805461032890610e06565b80156103755780601f1061034a57610100808354040283529160200191610375565b820191906000526020600020905b81548152906001019060200180831161035857829003601f168201915b505050506005830154600684015460078501546008909501549394919390925060ff1689565b600060016002546103ac9190610e56565b905090565b6103b9610afe565b47806104035760405162461bcd60e51b81526020600482015260146024820152732737903332b2b9903a37903bb4ba34323930bb9760611b60448201526064015b60405180910390fd5b600080546040516001600160a01b039091169083908381818185875af1925050503d8060008114610450576040519150601f19603f3d011682016040523d82523d6000602084013e610455565b606091505b50509050806104a65760405162461bcd60e51b815260206004820152601860248201527f4661696c656420746f20776974686472617720666565732e000000000000000060448201526064016103fa565b5050565b6104b2610afe565b6104bc6000610b2b565b565b6104c6610b7b565b6611c37937e08000341461051c5760405162461bcd60e51b815260206004820152601f60248201527f496e636f727265637420706f7374696e67206665652070726f76696465642e0060448201526064016103fa565b60008651116105665760405162461bcd60e51b81526020600482015260166024820152752a34ba36329031b0b73737ba1031329032b6b83a3c9760511b60448201526064016103fa565b60008551116105b75760405162461bcd60e51b815260206004820152601c60248201527f4465736372697074696f6e2063616e6e6f7420626520656d7074792e0000000060448201526064016103fa565b600083116106115760405162461bcd60e51b815260206004820152602160248201527f427564676574206d7573742062652067726561746572207468616e207a65726f6044820152601760f91b60648201526084016103fa565b6000821161066d5760405162461bcd60e51b815260206004820152602360248201527f4475726174696f6e206d7573742062652067726561746572207468616e207a6560448201526239379760e91b60648201526084016103fa565b6002805460408051610120810182528281523360208083019182528284018c8152606084018c9052608084018b905260a084018a905260c0840189905260e0840188905260016101008501819052600087815260039093529490912083518155915193820180546001600160a01b0319166001600160a01b0390951694909417909355915192939092908201906107049082610ebe565b50606082015160038201906107199082610ebe565b506080820151600482019061072e9082610ebe565b5060a0820151600582015560c0820151600682015560e08201516007820155610100909101516008909101805460ff19169115159190911790556002805490600061077883610f7d565b9190505550336001600160a01b0316817f87741f21e9a393f09a855ddaba43c5051f52da1b634991e2b6f05abc24a4e4618989898989896040516107c196959493929190610f96565b60405180910390a3506107d360018055565b505050505050565b60008060608060606000806000806000600360008c815260200190815260200160002060405180610120016040529081600082015481526020016001820160009054906101000a90046001600160a01b03166001600160a01b03166001600160a01b0316815260200160028201805461085390610e06565b80601f016020809104026020016040519081016040528092919081815260200182805461087f90610e06565b80156108cc5780601f106108a1576101008083540402835291602001916108cc565b820191906000526020600020905b8154815290600101906020018083116108af57829003601f168201915b505050505081526020016003820180546108e590610e06565b80601f016020809104026020016040519081016040528092919081815260200182805461091190610e06565b801561095e5780601f106109335761010080835404028352916020019161095e565b820191906000526020600020905b81548152906001019060200180831161094157829003601f168201915b5050505050815260200160048201805461097790610e06565b80601f01602080910402602001604051908101604052809291908181526020018280546109a390610e06565b80156109f05780601f106109c5576101008083540402835291602001916109f0565b820191906000526020600020905b8154815290600101906020018083116109d357829003601f168201915b505050918352505060058201546020820152600682015460408201526007820154606082015260089091015460ff161515608090910152610100810151909150610a725760405162461bcd60e51b81526020600482015260136024820152722537b1103237b2b9903737ba1032bc34b9ba1760691b60448201526064016103fa565b806000015181602001518260400151836060015184608001518560a001518660c001518760e00151886101000151995099509950995099509950995099509950509193959799909294969850565b610ac8610afe565b6001600160a01b038116610af257604051631e4fbdf760e01b8152600060048201526024016103fa565b610afb81610b2b565b50565b6000546001600160a01b031633146104bc5760405163118cdaa760e01b81523360048201526024016103fa565b600080546001600160a01b038381166001600160a01b0319831681178455604051919092169283917f8be0079c531659141344cd1fd0a4f28419497f9722a3daafe3b4186f6b6457e09190a35050565b600260015403610b9e57604051633ee5aeb560e01b815260040160405180910390fd5b6002600155565b600060208284031215610bb757600080fd5b5035919050565b6000815180845260005b81811015610be457602081850181015186830182015201610bc8565b506000602082860101526020601f19601f83011685010191505092915050565b8981526001600160a01b038916602082015261012060408201819052600090610c2f9083018a610bbe565b8281036060840152610c41818a610bbe565b90508281036080840152610c558189610bbe565b9150508560a08301528460c08301528360e08301528215156101008301529a9950505050505050505050565b634e487b7160e01b600052604160045260246000fd5b600082601f830112610ca857600080fd5b813567ffffffffffffffff811115610cc257610cc2610c81565b604051601f8201601f19908116603f0116810167ffffffffffffffff81118282101715610cf157610cf1610c81565b604052818152838201602001851015610d0957600080fd5b816020850160208301376000918101602001919091529392505050565b60008060008060008060c08789031215610d3f57600080fd5b863567ffffffffffffffff811115610d5657600080fd5b610d6289828a01610c97565b965050602087013567ffffffffffffffff811115610d7f57600080fd5b610d8b89828a01610c97565b955050604087013567ffffffffffffffff811115610da857600080fd5b610db489828a01610c97565b969995985095966060810135965060808101359560a090910135945092505050565b600060208284031215610de857600080fd5b81356001600160a01b0381168114610dff57600080fd5b9392505050565b600181811c90821680610e1a57607f821691505b602082108103610e3a57634e487b7160e01b600052602260045260246000fd5b50919050565b634e487b7160e01b600052601160045260246000fd5b81810381811115610e6957610e69610e40565b92915050565b601f821115610eb957806000526020600020601f840160051c81016020851015610e965750805b601f840160051c820191505b81811015610eb65760008155600101610ea2565b50505b505050565b815167ffffffffffffffff811115610ed857610ed8610c81565b610eec81610ee68454610e06565b84610e6f565b6020601f821160018114610f205760008315610f085750848201515b600019600385901b1c1916600184901b178455610eb6565b600084815260208120601f198516915b82811015610f505787850151825560209485019460019092019101610f30565b5084821015610f6e5786840151600019600387901b60f8161c191681555b50505050600190811b01905550565b600060018201610f8f57610f8f610e40565b5060010190565b60c081526000610fa960c0830189610bbe565b8281036020840152610fbb8189610bbe565b90508281036040840152610fcf8188610bbe565b60608401969096525050608081019290925260a090910152939250505056fea264697066735822122055510c4b4492553e07f7c774ff4c53385216cb9b07e8814c7aa2a41812cdba8964736f6c634300081c0033",
  "linkReferences": {},
  "deployedLinkReferences": {}
}