{
  "_format": "hh-sol-artifact-1",
  "contractName": "FreelanceJobs",
  "sourceName": "contracts/FreelanceJobs.sol",
  "abi": [
    {
      "inputs": [
        {
          "internalType": "address",
          "name": "initialOwner",
          "type": "address"
        }
      ],
      "stateMutability": "nonpayable",
      "type": "constructor"
    },
    {
      "inputs": [
        {
          "internalType": "address",
          "name": "owner",
          "type": "address"
        }
      ],
      "name": "OwnableInvalidOwner",
      "type": "error"
    },
    {
      "inputs": [
        {
          "internalType": "address",
          "name": "account",
          "type": "address"
        }
      ],
      "name": "OwnableUnauthorizedAccount",
      "type": "error"
    },
    {
      "inputs": [],
      "name": "ReentrancyGuardReentrantCall",
      "type": "error"
    },
    {
      "anonymous": false,
      "inputs": [
        {
          "indexed": true,
          "internalType": "uint256",
          "name": "jobId",
          "type": "uint256"
        },
        {
          "indexed": true,
          "internalType": "address",
          "name": "applicant",
          "type": "address"
        },
        {
          "indexed": false,
          "internalType": "enum FreelanceJobs.ApplicationStatus",
          "name": "status",
          "type": "uint8"
        }
      ],
      "name": "ApplicationStatusUpdated",
      "type": "event"
    },
    {
      "anonymous": false,
      "inputs": [
        {
          "indexed": true,
          "internalType": "uint256",
          "name": "jobId",
          "type": "uint256"
        },
        {
          "indexed": true,
          "internalType": "address",
          "name": "applicant",
          "type": "address"
        },
        {
          "indexed": false,
          "internalType": "string",
          "name": "proposal",
          "type": "string"
        },
        {
          "indexed": false,
          "internalType": "uint256",
          "name": "stakedAmount",
          "type": "uint256"
        }
      ],
      "name": "JobApplied",
      "type": "event"
    },
    {
      "anonymous": false,
      "inputs": [
        {
          "indexed": true,
          "internalType": "uint256",
          "name": "jobId",
          "type": "uint256"
        },
        {
          "indexed": true,
          "internalType": "address",
          "name": "employer",
          "type": "address"
        },
        {
          "indexed": false,
          "internalType": "string",
          "name": "title",
          "type": "string"
        },
        {
          "indexed": false,
          "internalType": "string",
          "name": "description",
          "type": "string"
        },
        {
          "indexed": false,
          "internalType": "string",
          "name": "skills",
          "type": "string"
        },
        {
          "indexed": false,
          "internalType": "uint256",
          "name": "budget",
          "type": "uint256"
        },
        {
          "indexed": false,
          "internalType": "uint256",
          "name": "durationInDays",
          "type": "uint256"
        },
        {
          "indexed": false,
          "internalType": "uint256",
          "name": "stakeRequired",
          "type": "uint256"
        }
      ],
      "name": "JobPosted",
      "type": "event"
    },
    {
      "anonymous": false,
      "inputs": [
        {
          "indexed": true,
          "internalType": "address",
          "name": "previousOwner",
          "type": "address"
        },
        {
          "indexed": true,
          "internalType": "address",
          "name": "newOwner",
          "type": "address"
        }
      ],
      "name": "OwnershipTransferred",
      "type": "event"
    },
    {
      "anonymous": false,
      "inputs": [
        {
          "indexed": true,
          "internalType": "uint256",
          "name": "jobId",
          "type": "uint256"
        },
        {
          "indexed": true,
          "internalType": "address",
          "name": "freelancer",
          "type": "address"
        },
        {
          "indexed": false,
          "internalType": "uint256",
          "name": "totalAmount",
          "type": "uint256"
        }
      ],
      "name": "PaymentApproved",
      "type": "event"
    },
    {
      "anonymous": false,
      "inputs": [
        {
          "indexed": true,
          "internalType": "uint256",
          "name": "jobId",
          "type": "uint256"
        },
        {
          "indexed": true,
          "internalType": "address",
          "name": "applicant",
          "type": "address"
        },
        {
          "indexed": false,
          "internalType": "uint256",
          "name": "stakeAmount",
          "type": "uint256"
        }
      ],
      "name": "StakeReturned",
      "type": "event"
    },
    {
      "anonymous": false,
      "inputs": [
        {
          "indexed": true,
          "internalType": "uint256",
          "name": "jobId",
          "type": "uint256"
        },
        {
          "indexed": true,
          "internalType": "address",
          "name": "freelancer",
          "type": "address"
        },
        {
          "indexed": false,
          "internalType": "string",
          "name": "submittedWorkUrl",
          "type": "string"
        }
      ],
      "name": "WorkSubmitted",
      "type": "event"
    },
    {
      "inputs": [],
      "name": "POSTING_FEE",
      "outputs": [
        {
          "internalType": "uint256",
          "name": "",
          "type": "uint256"
        }
      ],
      "stateMutability": "view",
      "type": "function"
    },
    {
      "inputs": [
        {
          "internalType": "uint256",
          "name": "_jobId",
          "type": "uint256"
        },
        {
          "internalType": "address",
          "name": "_applicantAddress",
          "type": "address"
        }
      ],
      "name": "acceptApplication",
      "outputs": [],
      "stateMutability": "nonpayable",
      "type": "function"
    },
    {
      "inputs": [
        {
          "internalType": "uint256",
          "name": "",
          "type": "uint256"
        },
        {
          "internalType": "uint256",
          "name": "",
          "type": "uint256"
        }
      ],
      "name": "applications",
      "outputs": [
        {
          "internalType": "address",
          "name": "applicant",
          "type": "address"
        },
        {
          "internalType": "string",
          "name": "proposal",
          "type": "string"
        },
        {
          "internalType": "uint256",
          "name": "stakedAmount",
          "type": "uint256"
        },
        {
          "internalType": "enum FreelanceJobs.ApplicationStatus",
          "name": "status",
          "type": "uint8"
        }
      ],
      "stateMutability": "view",
      "type": "function"
    },
    {
      "inputs": [
        {
          "internalType": "uint256",
          "name": "_jobId",
          "type": "uint256"
        },
        {
          "internalType": "string",
          "name": "_proposal",
          "type": "string"
        }
      ],
      "name": "applyForJob",
      "outputs": [],
      "stateMutability": "payable",
      "type": "function"
    },
    {
      "inputs": [
        {
          "internalType": "uint256",
          "name": "_jobId",
          "type": "uint256"
        }
      ],
      "name": "approveWork",
      "outputs": [],
      "stateMutability": "nonpayable",
      "type": "function"
    },
    {
      "inputs": [
        {
          "internalType": "uint256",
          "name": "_jobId",
          "type": "uint256"
        },
        {
          "internalType": "uint256",
          "name": "_index",
          "type": "uint256"
        }
      ],
      "name": "getApplication",
      "outputs": [
        {
          "internalType": "address",
          "name": "applicant",
          "type": "address"
        },
        {
          "internalType": "string",
          "name": "proposal",
          "type": "string"
        },
        {
          "internalType": "enum FreelanceJobs.ApplicationStatus",
          "name": "status",
          "type": "uint8"
        }
      ],
      "stateMutability": "view",
      "type": "function"
    },
    {
      "inputs": [
        {
          "internalType": "uint256",
          "name": "_jobId",
          "type": "uint256"
        }
      ],
      "name": "getApplicationsCount",
      "outputs": [
        {
          "internalType": "uint256",
          "name": "",
          "type": "uint256"
        }
      ],
      "stateMutability": "view",
      "type": "function"
    },
    {
      "inputs": [
        {
          "internalType": "uint256",
          "name": "_jobId",
          "type": "uint256"
        }
      ],
      "name": "getJob",
      "outputs": [
        {
          "internalType": "uint256",
          "name": "jobId",
          "type": "uint256"
        },
        {
          "internalType": "address",
          "name": "employer",
          "type": "address"
        },
        {
          "internalType": "string",
          "name": "title",
          "type": "string"
        },
        {
          "internalType": "string",
          "name": "description",
          "type": "string"
        },
        {
          "internalType": "string",
          "name": "skills",
          "type": "string"
        },
        {
          "internalType": "uint256",
          "name": "budget",
          "type": "uint256"
        },
        {
          "internalType": "uint256",
          "name": "durationInDays",
          "type": "uint256"
        },
        {
          "internalType": "uint256",
          "name": "stakeRequired",
          "type": "uint256"
        },
        {
          "internalType": "bool",
          "name": "isPosted",
          "type": "bool"
        }
      ],
      "stateMutability": "view",
      "type": "function"
    },
    {
      "inputs": [],
      "name": "getTotalJobs",
      "outputs": [
        {
          "internalType": "uint256",
          "name": "",
          "type": "uint256"
        }
      ],
      "stateMutability": "view",
      "type": "function"
    },
    {
      "inputs": [
        {
          "internalType": "uint256",
          "name": "",
          "type": "uint256"
        }
      ],
      "name": "jobs",
      "outputs": [
        {
          "internalType": "uint256",
          "name": "jobId",
          "type": "uint256"
        },
        {
          "internalType": "address",
          "name": "employer",
          "type": "address"
        },
        {
          "internalType": "string",
          "name": "title",
          "type": "string"
        },
        {
          "internalType": "string",
          "name": "description",
          "type": "string"
        },
        {
          "internalType": "string",
          "name": "skills",
          "type": "string"
        },
        {
          "internalType": "uint256",
          "name": "budget",
          "type": "uint256"
        },
        {
          "internalType": "uint256",
          "name": "durationInDays",
          "type": "uint256"
        },
        {
          "internalType": "uint256",
          "name": "stakeRequired",
          "type": "uint256"
        },
        {
          "internalType": "bool",
          "name": "isPosted",
          "type": "bool"
        },
        {
          "internalType": "bool",
          "name": "hasFreelancer",
          "type": "bool"
        },
        {
          "internalType": "address",
          "name": "acceptedApplicant",
          "type": "address"
        },
        {
          "internalType": "string",
          "name": "submittedWorkUrl",
          "type": "string"
        },
        {
          "internalType": "bool",
          "name": "workSubmitted",
          "type": "bool"
        },
        {
          "internalType": "bool",
          "name": "paid",
          "type": "bool"
        }
      ],
      "stateMutability": "view",
      "type": "function"
    },
    {
      "inputs": [],
      "name": "owner",
      "outputs": [
        {
          "internalType": "address",
          "name": "",
          "type": "address"
        }
      ],
      "stateMutability": "view",
      "type": "function"
    },
    {
      "inputs": [
        {
          "internalType": "string",
          "name": "_title",
          "type": "string"
        },
        {
          "internalType": "string",
          "name": "_description",
          "type": "string"
        },
        {
          "internalType": "string",
          "name": "_skills",
          "type": "string"
        },
        {
          "internalType": "uint256",
          "name": "_budget",
          "type": "uint256"
        },
        {
          "internalType": "uint256",
          "name": "_durationInDays",
          "type": "uint256"
        },
        {
          "internalType": "uint256",
          "name": "_stakeRequired",
          "type": "uint256"
        }
      ],
      "name": "postJob",
      "outputs": [],
      "stateMutability": "payable",
      "type": "function"
    },
    {
      "inputs": [
        {
          "internalType": "uint256",
          "name": "_jobId",
          "type": "uint256"
        },
        {
          "internalType": "address",
          "name": "_applicantAddress",
          "type": "address"
        }
      ],
      "name": "rejectApplication",
      "outputs": [],
      "stateMutability": "nonpayable",
      "type": "function"
    },
    {
      "inputs": [],
      "name": "renounceOwnership",
      "outputs": [],
      "stateMutability": "nonpayable",
      "type": "function"
    },
    {
      "inputs": [
        {
          "internalType": "uint256",
          "name": "_jobId",
          "type": "uint256"
        },
        {
          "internalType": "string",
          "name": "_submittedWorkUrl",
          "type": "string"
        }
      ],
      "name": "submitWork",
      "outputs": [],
      "stateMutability": "nonpayable",
      "type": "function"
    },
    {
      "inputs": [],
      "name": "totalPostingFees",
      "outputs": [
        {
          "internalType": "uint256",
          "name": "",
          "type": "uint256"
        }
      ],
      "stateMutability": "view",
      "type": "function"
    },
    {
      "inputs": [
        {
          "internalType": "address",
          "name": "newOwner",
          "type": "address"
        }
      ],
      "name": "transferOwnership",
      "outputs": [],
      "stateMutability": "nonpayable",
      "type": "function"
    },
    {
      "inputs": [],
      "name": "withdrawFees",
      "outputs": [],
      "stateMutability": "nonpayable",
      "type": "function"
    }
  ],
  "bytecode": "0x60803460c557601f6123f338819003918201601f19168301916001600160401b0383118484101760ca5780849260209460405283398101031260c557516001600160a01b0381169081900360c557801560af57600080546001600160a01b031981168317825560405192916001600160a01b03909116907f8be0079c531659141344cd1fd0a4f28419497f9722a3daafe3b4186f6b6457e09080a360018055600160025561231290816100e18239f35b631e4fbdf760e01b600052600060045260246000fd5b600080fd5b634e487b7160e01b600052604160045260246000fdfe6080604052600436101561001257600080fd5b60003560e01c8063180aedf314611dc85780633169f6b914611da65780633aee799614611d7b5780633d01e0fa14611af7578063476343ee14611a2e578063604d67ee14611a10578063627b594b146117685780636c09a5e314611364578063715018a61461130b5780637a870b63146112875780637eb1d8691461091b578063832a05b7146108615780638da5cb5b14610838578063bf22c457146106a5578063ca5e30771461043e578063d4c6077b14610412578063da8accf9146101745763f2fde38b146100e257600080fd5b3461016f57602036600319011261016f576004356001600160a01b0381169081900361016f576101106122b3565b801561015957600080546001600160a01b03198116831782556001600160a01b0316907f8be0079c531659141344cd1fd0a4f28419497f9722a3daafe3b4186f6b6457e09080a3005b631e4fbdf760e01b600052600060045260246000fd5b600080fd5b3461016f57610182366120f0565b9061018b612291565b6000818152600360205260409020600881015460101c6001600160a01b031633036103b757600a81019060ff8254166103735783511561032e5760090183516001600160401b038111610318576101e28254611f01565b601f81116102d0575b50806020601f821160011461026d57600091610262575b508160011b916000199060031b1c19161790555b600160ff198254161790557fd5d9bc882dc95f198786a74e52a0b87e49a07c80921b74821ba374339e394d30604051602081528061025933956020830190612037565b0390a360018055005b905085015186610202565b60008481528181209250601f198416905b8181106102b85750908360019493921061029f575b5050811b019055610216565b87015160001960f88460031b161c191690558680610293565b9192602060018192868c01518155019401920161027e565b826000526020600020601f830160051c8101916020841061030e575b601f0160051c01905b81811061030257506101eb565b600081556001016102f5565b90915081906102ec565b634e487b7160e01b600052604160045260246000fd5b60405162461bcd60e51b815260206004820152601960248201527f576f726b2055524c2063616e6e6f7420626520656d7074792e000000000000006044820152606490fd5b606460405162461bcd60e51b815260206004820152602060248201527f576f726b2068617320616c7265616479206265656e207375626d69747465642e6044820152fd5b60405162461bcd60e51b815260206004820152602d60248201527f4f6e6c792074686520616363657074656420667265656c616e6365722063616e60448201526c1039bab136b4ba103bb7b9359760991b6064820152608490fd5b3461016f57602036600319011261016f5760043560005260046020526020604060002054604051908152f35b3461016f57604036600319011261016f5760043561045a612078565b90610463612291565b600081815260036020526040902060018101546001600160a01b0316330361064b5760ff600861049992015460081c16156121a7565b60008181526004602052604081205490926001600160a01b0316835b828110610508575b50505050156104cc5760018055005b60405162461bcd60e51b815260206004820152601460248201527320b8383634b1b0b73a103737ba103337bab7321760611b6044820152606490fd5b83600052600460205261051f816040600020612138565b5080546001600160a01b0316831461053a57506001016104b5565b925050919250600381019060ff8254166003811015610635576105e4576002918260ff19825416179055019161058160008080808754875af161057b612177565b50612203565b7f0d736493ece6b7d52e34dd028d3d9d0aa75de37339f3da6b3514e70e231ed2a5602060019484847f7f377577ca47c46a7772ffd12220cca0d4ce6da27ce432ac39b8d24d887d4b4d8460405160028152a354604051908152a3818080806104bd565b60405162461bcd60e51b8152602060048201526024808201527f4170706c69636174696f6e206973206e6f7420696e2050656e64696e6720737460448201526330ba329760e11b6064820152608490fd5b634e487b7160e01b600052602160045260246000fd5b60405162461bcd60e51b815260206004820152602c60248201527f4f6e6c792074686520656d706c6f7965722063616e2072656a65637420616e2060448201526b30b8383634b1b0ba34b7b71760a11b6064820152608490fd5b3461016f57602036600319011261016f57600435600052600360205260406000206040516106d281611f56565b8154815260018201546001600160a01b031660208201908152906106f860028401611f93565b926040820193845261070c60038201611f93565b906060830191825261072060048201611f93565b926080810193845261081e600583015460a0830190815261081060068501549660c0850197885261080260078701549560e0810196875260ff600a60088a01549961010084019a83811615158c52838160081c16151561012086015260018060a01b039060101c1661014085015261079a60098201611f93565b6101608501520154818116151561018084015260081c1615156101a08201526107c58851151561224f565b519960018060a01b039051169a519751915193519851955196511515976040519b8c9b8c5260208c015261012060408c01526101208b0190612037565b9089820360608b0152612037565b908782036080890152612037565b9360a086015260c085015260e08401526101008301520390f35b3461016f57600036600319011261016f576000546040516001600160a01b039091168152602090f35b3461016f5761088561087236612122565b9060005260046020526040600020612138565b506040519061089382611f3b565b80546001600160a01b0316825260ff60036108b060018401611f93565b926020850193845260028101546040860152015416916060810192600381101561063557835260018060a01b039051169051915160038110156106355761091761090c6040519485948552606060208601526060850190612037565b91604084019061216a565b0390f35b60c036600319011261016f576004356001600160401b03811161016f576109469036906004016120a9565b6024356001600160401b03811161016f576109659036906004016120a9565b6044356001600160401b03811161016f576109849036906004016120a9565b60643592610990612291565b836611c37937e0800001806611c37937e0800011610d7557340361121c578051156111de5782511561119957831561114a57608435156110f95760a435156110b55760025492604051926109e384611f56565b8484523360208501528260408501528160608501528060808501528560a085015260843560c085015260a43560e0850152600161010085015260006101208501526000610140850152602093604051610a3c8682611f72565b60008152610160820152600061018082015260006101a0820152856000526003855260406000208151815560018060a01b03602083015116600182019060018060a01b03166bffffffffffffffffffffffff60a01b82541617905560408201518051906001600160401b038211610318578190610abc6002850154611f01565b601f8111611064575b508890601f8311600114610ff357600092610fe8575b50508160011b916000199060031b1c19161760028201555b60608201518051906001600160401b038211610318578190610b186003850154611f01565b601f8111610f97575b508890601f8311600114610f2657600092610f1b575b50508160011b916000199060031b1c19161760038201555b60808201518051906001600160401b038211610318578190610b746004850154611f01565b601f8111610eca575b508890601f8311600114610e5957600092610e4e575b50508160011b916000199060031b1c19161760048201555b60a0820151600582015560c0820151600682015560e08201516007820155610c3160088201610bed6101008501511515829060ff801983541691151516179055565b610120840151815461ff00191690151560081b61ff0016178155610140840151815462010000600160b01b03191660109190911b62010000600160b01b0316179055565b600981016101608301518051906001600160401b03821161031857610c568354611f01565b601f8111610e08575b508890601f8311600114610d96579282600a93610cd09796936101a096600092610d8b575b50508160011b916000199060031b1c19161790555b0191610cb86101808201511515849060ff801983541691151516179055565b0151815461ff00191690151560081b61ff0016179055565b6002546000198114610d75576001016002556006546611c37937e080008101809111610d75577f87741f21e9a393f09a855ddaba43c5051f52da1b634991e2b6f05abc24a4e46194610d5393610d4592600655610d386040519660c0885260c0880190612037565b9186830390870152612037565b908382036040850152612037565b936060820152608435608082015260a43560a08201528033940390a360018055005b634e487b7160e01b600052601160045260246000fd5b015190508e80610c84565b90601f19831691846000528a6000209260005b8c828210610df257505093610cd09796936101a0969360019383600a9810610dd9575b505050811b019055610c99565b015160001960f88460031b161c191690558e8080610dcc565b6001859682939686015181550195019301610da9565b8360005289600020601f840160051c8101918b8510610e44575b601f0160051c01905b818110610e385750610c5f565b60008155600101610e2b565b9091508190610e22565b015190508a80610b93565b92506004840160005288600020906000935b8a601f1985168610610eb157506001945083601f19811610610e98575b505050811b016004820155610bab565b015160001960f88460031b161c191690558a8080610e88565b8282015184559485019460019093019290910190610e6b565b9091506004840160005288600020601f840160051c81018a8510610f14575b90849392915b601f830160051c82018110610f05575050610b7d565b60008155859450600101610eef565b5080610ee9565b015190508a80610b37565b92506003840160005288600020906000935b8a601f1985168610610f7e57506001945083601f19811610610f65575b505050811b016003820155610b4f565b015160001960f88460031b161c191690558a8080610f55565b8282015184559485019460019093019290910190610f38565b9091506003840160005288600020601f840160051c81018a8510610fe1575b90849392915b601f830160051c82018110610fd2575050610b21565b60008155859450600101610fbc565b5080610fb6565b015190508a80610adb565b92506002840160005288600020906000935b8a601f198516861061104b57506001945083601f19811610611032575b505050811b016002820155610af3565b015160001960f88460031b161c191690558a8080611022565b8282015184559485019460019093019290910190611005565b9091506002840160005288600020601f840160051c81018a85106110ae575b90849392915b601f830160051c8201811061109f575050610ac5565b60008155859450600101611089565b5080611083565b606460405162461bcd60e51b815260206004820152602060248201527f5374616b65206d7573742062652067726561746572207468616e207a65726f2e6044820152fd5b60405162461bcd60e51b815260206004820152602360248201527f4475726174696f6e206d7573742062652067726561746572207468616e207a6560448201526239379760e91b6064820152608490fd5b60405162461bcd60e51b815260206004820152602160248201527f427564676574206d7573742062652067726561746572207468616e207a65726f6044820152601760f91b6064820152608490fd5b60405162461bcd60e51b815260206004820152601c60248201527f4465736372697074696f6e2063616e6e6f7420626520656d7074792e000000006044820152606490fd5b60405162461bcd60e51b81526020600482015260166024820152752a34ba36329031b0b73737ba1031329032b6b83a3c9760511b6044820152606490fd5b60405162461bcd60e51b815260206004820152603760248201527f496e636f727265637420616d6f756e742070726f766964656420286e6565647360448201527f20706f7374696e6720666565202b20627564676574292e0000000000000000006064820152608490fd5b3461016f5761129536612122565b906000526004602052604060002090815481101561016f576112b691612138565b5080546001600160a01b03166112ce60018301611f93565b9161091760ff60036002840154930154166112fb6040519586958652608060208701526080860190612037565b926040850152606084019061216a565b3461016f57600036600319011261016f576113246122b3565b600080546001600160a01b0319811682556001600160a01b03167f8be0079c531659141344cd1fd0a4f28419497f9722a3daafe3b4186f6b6457e08280a3005b61136d366120f0565b611375612291565b816000526003602052604060002060088101549061139560ff831661224f565b60018101546001600160a01b03163314611712576007015434036116ce5760081c60ff1661166e5733600052600560205260406000208260005260205260ff6040600020541661161a57816000526004602052604060002090604051926113fb84611f3b565b3384526020840193828552604081013481526060820194600086528054680100000000000000008110156103185761143891600182018155612138565b929092611604575182546001600160a01b0319166001600160a01b03919091161782559451805190959060018301906001600160401b0381116103185761147f8254611f01565b601f81116115bc575b506020601f8211600114611552578190600396979899600092611547575b50508160011b9160001990871b1c19161790555b5160028201550192519260038410156106355760009360ff8019835416911617905533835260056020526040832081845260205260408320600160ff198254161790557fc0e48ac2e8851eb1e96651e1d505244dbeaf4b2abf64b3879bc98d32e0eebe7b61153360405193604085526040850190612037565b923460208201528033940390a36001805580f35b0151905089806114a6565b601f1982169883600052816000209960005b8181106115a457509160039798999a9184600195941061158c575b505050811b0190556114ba565b015160001983891b60f8161c1916905589808061157f565b838301518c556001909b019a60209384019301611564565b826000526020600020601f830160051c810191602084106115fa575b601f0160051c01905b8181106115ee5750611488565b600081556001016115e1565b90915081906115d8565b634e487b7160e01b600052600060045260246000fd5b60405162461bcd60e51b815260206004820152602660248201527f596f75206861766520616c7265616479206170706c69656420666f722074686960448201526539903537b11760d11b6064820152608490fd5b60405162461bcd60e51b815260206004820152603260248201527f467265656c616e63657220666f722074686973206a6f622068617320616c726560448201527130b23c903132b2b71039b2b632b1ba32b21760711b6064820152608490fd5b606460405162461bcd60e51b815260206004820152602060248201527f496e636f7272656374207374616b6520616d6f756e742070726f76696465642e6044820152fd5b60405162461bcd60e51b815260206004820152602860248201527f456d706c6f7965722063616e6e6f74206170706c7920666f722074686569722060448201526737bbb7103537b11760c11b6064820152608490fd5b3461016f57604036600319011261016f57600435611784612078565b61178c612291565b600082815260036020526040902060018101546001600160a01b031633036119b6576008839101916117c560ff845460081c16156121a7565b600082815260046020526040812054909384936001600160a01b038416915b83861061184e5786156117f75760018055005b60405162461bcd60e51b815260206004820152602960248201527f4170706c6963616e74206e6f7420666f756e64206f7220616c726561647920706044820152683937b1b2b9b9b2b21760b91b6064820152608490fd5b90919293949582600052600460205261186b876040600020612138565b5080549091906001600160a01b031685036118f95750600301805460ff19166001179055805462010000600160b01b031916601086901b62010000600160b01b031617815561010061ff00198254161781556001809684847f7f377577ca47c46a7772ffd12220cca0d4ce6da27ce432ac39b8d24d887d4b4d60206040518c8152a35b0194939291906117e4565b96600382019160ff835416926003841015610635576001931561191e575b50506118ee565b600260ff19825416179055847f0d736493ece6b7d52e34dd028d3d9d0aa75de37339f3da6b3514e70e231ed2a56020858060a01b0384541693611971600080808060028601998a54905af161057b612177565b868060a01b039054169384847f7f377577ca47c46a7772ffd12220cca0d4ce6da27ce432ac39b8d24d887d4b4d8460405160028152a354604051908152a38880611917565b60405162461bcd60e51b815260206004820152602c60248201527f4f6e6c792074686520656d706c6f7965722063616e2061636365707420616e2060448201526b30b8383634b1b0ba34b7b71760a11b6064820152608490fd5b3461016f57600036600319011261016f576020600654604051908152f35b3461016f57600036600319011261016f57611a476122b3565b6006548015611abb576000808080938160065560018060a01b038254165af1611a6e612177565b5015611a7657005b60405162461bcd60e51b815260206004820152601860248201527f4661696c656420746f20776974686472617720666565732e00000000000000006044820152606490fd5b60405162461bcd60e51b81526020600482015260146024820152732737903332b2b9903a37903bb4ba34323930bb9760611b6044820152606490fd5b3461016f57602036600319011261016f57600435611b13612291565b600081815260036020526040902060018101549091906001600160a01b03163303611d265760088201805460101c6001600160a01b03168015611cd557600a840190815460ff811615611c915760081c60ff16611c3857600760058601549501548501809511610d7557600080808781945af1611b8e612177565b5015611be157805461ff0019166101001790555460405192835260101c6001600160a01b0316917f0803deed35188b93d8ce36327912757bc01e378ca30fd0b7238d061bfb60664090602090a360018055005b60405162461bcd60e51b815260206004820152602960248201527f4661696c656420746f207472616e73666572207061796d656e7420746f20667260448201526832b2b630b731b2b91760b91b6064820152608490fd5b60405162461bcd60e51b815260206004820152602b60248201527f5061796d656e742068617320616c7265616479206265656e206d61646520666f60448201526a39103a3434b9903537b11760a91b6064820152608490fd5b606460405162461bcd60e51b815260206004820152602060248201527f576f726b20686173206e6f74206265656e207375626d6974746564207965742e6044820152fd5b60405162461bcd60e51b8152602060048201526024808201527f4e6f20667265656c616e63657220686173206265656e206163636570746564206044820152633cb2ba1760e11b6064820152608490fd5b60405162461bcd60e51b815260206004820152602760248201527f4f6e6c792074686520656d706c6f7965722063616e20617070726f766520746860448201526632903bb7b9359760c91b6064820152608490fd5b3461016f57600036600319011261016f576002546000198101908111610d7557602090604051908152f35b3461016f57600036600319011261016f5760206040516611c37937e080008152f35b3461016f57602036600319011261016f576004356000908152600360205260409020805460018201546001600160a01b031691611e0760028201611f93565b90611e1460038201611f93565b611e2060048301611f93565b90600583015491600684015460078501549160088601549360098701611e4590611f93565b96600a0154976040519a8b9a8b5260208b015260408a016101c090526101c08a01611e6f91612037565b89810360608b0152611e8091612037565b88810360808a0152611e9191612037565b60a088019490945260c087015260e086015260ff8181161515610100870152600882901c16151561012086015260101c6001600160a01b0316610140850152838103610160850152611ee291612037565b9060ff8116151561018084015260081c60ff1615156101a08301520390f35b90600182811c92168015611f31575b6020831014611f1b57565b634e487b7160e01b600052602260045260246000fd5b91607f1691611f10565b608081019081106001600160401b0382111761031857604052565b6101c081019081106001600160401b0382111761031857604052565b90601f801991011681019081106001600160401b0382111761031857604052565b9060405191826000825492611fa784611f01565b80845293600181169081156120155750600114611fce575b50611fcc92500383611f72565b565b90506000929192526020600020906000915b818310611ff9575050906020611fcc9282010138611fbf565b6020919350806001915483858901015201910190918492611fe0565b905060209250611fcc94915060ff191682840152151560051b82010138611fbf565b919082519283825260005b848110612063575050826000602080949584010152601f8019910116010190565b80602080928401015182828601015201612042565b602435906001600160a01b038216820361016f57565b6001600160401b03811161031857601f01601f191660200190565b81601f8201121561016f578035906120c08261208e565b926120ce6040519485611f72565b8284526020838301011161016f57816000926020809301838601378301015290565b90604060031983011261016f5760043591602435906001600160401b03821161016f5761211f916004016120a9565b90565b604090600319011261016f576004359060243590565b80548210156121545760005260206000209060021b0190600090565b634e487b7160e01b600052603260045260246000fd5b9060038210156106355752565b3d156121a2573d906121888261208e565b916121966040519384611f72565b82523d6000602084013e565b606090565b156121ae57565b60405162461bcd60e51b815260206004820152602760248201527f4120667265656c616e6365722068617320616c7265616479206265656e20616360448201526631b2b83a32b21760c91b6064820152608490fd5b1561220a57565b60405162461bcd60e51b815260206004820152601760248201527f4661696c656420746f2072657475726e207374616b652e0000000000000000006044820152606490fd5b1561225657565b60405162461bcd60e51b81526020600482015260136024820152722537b1103237b2b9903737ba1032bc34b9ba1760691b6044820152606490fd5b6002600154146122a2576002600155565b633ee5aeb560e01b60005260046000fd5b6000546001600160a01b031633036122c757565b63118cdaa760e01b6000523360045260246000fdfea26469706673582212205348392a523f8e02205df0990d5f3d61502e88084978140f4a3521e79c29ef0664736f6c634300081c0033",
  "linkReferences": {},
  "deployedLinkReferences": {}
}