{
  "_format": "hh-sol-artifact-1",
  "contractName": "FreelanceJobs",
  "sourceName": "contracts/FreelanceJobs.sol",
  "abi": [
    {
      "inputs": [
        {
          "internalType": "address",
          "name": "initialOwner",
          "type": "address"
        }
      ],
      "stateMutability": "nonpayable",
      "type": "constructor"
    },
    {
      "inputs": [
        {
          "internalType": "address",
          "name": "owner",
          "type": "address"
        }
      ],
      "name": "OwnableInvalidOwner",
      "type": "error"
    },
    {
      "inputs": [
        {
          "internalType": "address",
          "name": "account",
          "type": "address"
        }
      ],
      "name": "OwnableUnauthorizedAccount",
      "type": "error"
    },
    {
      "inputs": [],
      "name": "ReentrancyGuardReentrantCall",
      "type": "error"
    },
    {
      "anonymous": false,
      "inputs": [
        {
          "indexed": true,
          "internalType": "uint256",
          "name": "jobId",
          "type": "uint256"
        },
        {
          "indexed": true,
          "internalType": "address",
          "name": "applicant",
          "type": "address"
        },
        {
          "indexed": false,
          "internalType": "enum FreelanceJobs.ApplicationStatus",
          "name": "status",
          "type": "uint8"
        }
      ],
      "name": "ApplicationStatusUpdated",
      "type": "event"
    },
    {
      "anonymous": false,
      "inputs": [
        {
          "indexed": true,
          "internalType": "uint256",
          "name": "jobId",
          "type": "uint256"
        },
        {
          "indexed": true,
          "internalType": "address",
          "name": "applicant",
          "type": "address"
        },
        {
          "indexed": false,
          "internalType": "string",
          "name": "proposal",
          "type": "string"
        }
      ],
      "name": "JobApplied",
      "type": "event"
    },
    {
      "anonymous": false,
      "inputs": [
        {
          "indexed": true,
          "internalType": "uint256",
          "name": "jobId",
          "type": "uint256"
        },
        {
          "indexed": true,
          "internalType": "address",
          "name": "employer",
          "type": "address"
        },
        {
          "indexed": false,
          "internalType": "string",
          "name": "title",
          "type": "string"
        },
        {
          "indexed": false,
          "internalType": "string",
          "name": "description",
          "type": "string"
        },
        {
          "indexed": false,
          "internalType": "string",
          "name": "skills",
          "type": "string"
        },
        {
          "indexed": false,
          "internalType": "uint256",
          "name": "budget",
          "type": "uint256"
        },
        {
          "indexed": false,
          "internalType": "uint256",
          "name": "durationInDays",
          "type": "uint256"
        },
        {
          "indexed": false,
          "internalType": "uint256",
          "name": "stakeRequired",
          "type": "uint256"
        }
      ],
      "name": "JobPosted",
      "type": "event"
    },
    {
      "anonymous": false,
      "inputs": [
        {
          "indexed": true,
          "internalType": "address",
          "name": "previousOwner",
          "type": "address"
        },
        {
          "indexed": true,
          "internalType": "address",
          "name": "newOwner",
          "type": "address"
        }
      ],
      "name": "OwnershipTransferred",
      "type": "event"
    },
    {
      "anonymous": false,
      "inputs": [
        {
          "indexed": true,
          "internalType": "uint256",
          "name": "jobId",
          "type": "uint256"
        },
        {
          "indexed": true,
          "internalType": "address",
          "name": "freelancer",
          "type": "address"
        },
        {
          "indexed": false,
          "internalType": "uint256",
          "name": "totalAmount",
          "type": "uint256"
        }
      ],
      "name": "PaymentApproved",
      "type": "event"
    },
    {
      "anonymous": false,
      "inputs": [
        {
          "indexed": true,
          "internalType": "uint256",
          "name": "jobId",
          "type": "uint256"
        },
        {
          "indexed": true,
          "internalType": "address",
          "name": "applicant",
          "type": "address"
        },
        {
          "indexed": false,
          "internalType": "uint256",
          "name": "stakedAmount",
          "type": "uint256"
        }
      ],
      "name": "StakeLocked",
      "type": "event"
    },
    {
      "anonymous": false,
      "inputs": [
        {
          "indexed": true,
          "internalType": "uint256",
          "name": "jobId",
          "type": "uint256"
        },
        {
          "indexed": true,
          "internalType": "address",
          "name": "applicant",
          "type": "address"
        },
        {
          "indexed": false,
          "internalType": "uint256",
          "name": "stakeAmount",
          "type": "uint256"
        }
      ],
      "name": "StakeReturned",
      "type": "event"
    },
    {
      "anonymous": false,
      "inputs": [
        {
          "indexed": true,
          "internalType": "uint256",
          "name": "jobId",
          "type": "uint256"
        },
        {
          "indexed": true,
          "internalType": "address",
          "name": "freelancer",
          "type": "address"
        },
        {
          "indexed": false,
          "internalType": "string",
          "name": "submittedWorkUrl",
          "type": "string"
        }
      ],
      "name": "WorkSubmitted",
      "type": "event"
    },
    {
      "inputs": [],
      "name": "POSTING_FEE",
      "outputs": [
        {
          "internalType": "uint256",
          "name": "",
          "type": "uint256"
        }
      ],
      "stateMutability": "view",
      "type": "function"
    },
    {
      "inputs": [
        {
          "internalType": "uint256",
          "name": "_jobId",
          "type": "uint256"
        },
        {
          "internalType": "address",
          "name": "_applicantAddress",
          "type": "address"
        }
      ],
      "name": "acceptApplication",
      "outputs": [],
      "stateMutability": "nonpayable",
      "type": "function"
    },
    {
      "inputs": [
        {
          "internalType": "uint256",
          "name": "",
          "type": "uint256"
        },
        {
          "internalType": "uint256",
          "name": "",
          "type": "uint256"
        }
      ],
      "name": "applications",
      "outputs": [
        {
          "internalType": "address",
          "name": "applicant",
          "type": "address"
        },
        {
          "internalType": "string",
          "name": "proposal",
          "type": "string"
        },
        {
          "internalType": "uint256",
          "name": "stakedAmount",
          "type": "uint256"
        },
        {
          "internalType": "enum FreelanceJobs.ApplicationStatus",
          "name": "status",
          "type": "uint8"
        }
      ],
      "stateMutability": "view",
      "type": "function"
    },
    {
      "inputs": [
        {
          "internalType": "uint256",
          "name": "_jobId",
          "type": "uint256"
        },
        {
          "internalType": "string",
          "name": "_proposal",
          "type": "string"
        }
      ],
      "name": "applyForJob",
      "outputs": [],
      "stateMutability": "nonpayable",
      "type": "function"
    },
    {
      "inputs": [
        {
          "internalType": "uint256",
          "name": "_jobId",
          "type": "uint256"
        }
      ],
      "name": "approveWork",
      "outputs": [],
      "stateMutability": "nonpayable",
      "type": "function"
    },
    {
      "inputs": [
        {
          "internalType": "uint256",
          "name": "_jobId",
          "type": "uint256"
        },
        {
          "internalType": "uint256",
          "name": "_index",
          "type": "uint256"
        }
      ],
      "name": "getApplication",
      "outputs": [
        {
          "internalType": "address",
          "name": "applicant",
          "type": "address"
        },
        {
          "internalType": "string",
          "name": "proposal",
          "type": "string"
        },
        {
          "internalType": "enum FreelanceJobs.ApplicationStatus",
          "name": "status",
          "type": "uint8"
        },
        {
          "internalType": "uint256",
          "name": "stakedAmount",
          "type": "uint256"
        }
      ],
      "stateMutability": "view",
      "type": "function"
    },
    {
      "inputs": [
        {
          "internalType": "uint256",
          "name": "_jobId",
          "type": "uint256"
        }
      ],
      "name": "getApplicationsCount",
      "outputs": [
        {
          "internalType": "uint256",
          "name": "",
          "type": "uint256"
        }
      ],
      "stateMutability": "view",
      "type": "function"
    },
    {
      "inputs": [
        {
          "internalType": "uint256",
          "name": "_jobId",
          "type": "uint256"
        }
      ],
      "name": "getJob",
      "outputs": [
        {
          "internalType": "uint256",
          "name": "jobId",
          "type": "uint256"
        },
        {
          "internalType": "address",
          "name": "employer",
          "type": "address"
        },
        {
          "internalType": "string",
          "name": "title",
          "type": "string"
        },
        {
          "internalType": "string",
          "name": "description",
          "type": "string"
        },
        {
          "internalType": "string",
          "name": "skills",
          "type": "string"
        },
        {
          "internalType": "uint256",
          "name": "budget",
          "type": "uint256"
        },
        {
          "internalType": "uint256",
          "name": "durationInDays",
          "type": "uint256"
        },
        {
          "internalType": "uint256",
          "name": "stakeRequired",
          "type": "uint256"
        },
        {
          "internalType": "bool",
          "name": "isPosted",
          "type": "bool"
        }
      ],
      "stateMutability": "view",
      "type": "function"
    },
    {
      "inputs": [],
      "name": "getTotalJobs",
      "outputs": [
        {
          "internalType": "uint256",
          "name": "",
          "type": "uint256"
        }
      ],
      "stateMutability": "view",
      "type": "function"
    },
    {
      "inputs": [
        {
          "internalType": "uint256",
          "name": "",
          "type": "uint256"
        }
      ],
      "name": "jobs",
      "outputs": [
        {
          "internalType": "uint256",
          "name": "jobId",
          "type": "uint256"
        },
        {
          "internalType": "address",
          "name": "employer",
          "type": "address"
        },
        {
          "internalType": "string",
          "name": "title",
          "type": "string"
        },
        {
          "internalType": "string",
          "name": "description",
          "type": "string"
        },
        {
          "internalType": "string",
          "name": "skills",
          "type": "string"
        },
        {
          "internalType": "uint256",
          "name": "budget",
          "type": "uint256"
        },
        {
          "internalType": "uint256",
          "name": "durationInDays",
          "type": "uint256"
        },
        {
          "internalType": "uint256",
          "name": "stakeRequired",
          "type": "uint256"
        },
        {
          "internalType": "bool",
          "name": "isPosted",
          "type": "bool"
        },
        {
          "internalType": "bool",
          "name": "hasFreelancer",
          "type": "bool"
        },
        {
          "internalType": "address",
          "name": "acceptedApplicant",
          "type": "address"
        },
        {
          "internalType": "string",
          "name": "submittedWorkUrl",
          "type": "string"
        },
        {
          "internalType": "bool",
          "name": "workSubmitted",
          "type": "bool"
        },
        {
          "internalType": "bool",
          "name": "paid",
          "type": "bool"
        }
      ],
      "stateMutability": "view",
      "type": "function"
    },
    {
      "inputs": [
        {
          "internalType": "uint256",
          "name": "_jobId",
          "type": "uint256"
        }
      ],
      "name": "lockStake",
      "outputs": [],
      "stateMutability": "payable",
      "type": "function"
    },
    {
      "inputs": [],
      "name": "owner",
      "outputs": [
        {
          "internalType": "address",
          "name": "",
          "type": "address"
        }
      ],
      "stateMutability": "view",
      "type": "function"
    },
    {
      "inputs": [
        {
          "internalType": "string",
          "name": "_title",
          "type": "string"
        },
        {
          "internalType": "string",
          "name": "_description",
          "type": "string"
        },
        {
          "internalType": "string",
          "name": "_skills",
          "type": "string"
        },
        {
          "internalType": "uint256",
          "name": "_budget",
          "type": "uint256"
        },
        {
          "internalType": "uint256",
          "name": "_durationInDays",
          "type": "uint256"
        },
        {
          "internalType": "uint256",
          "name": "_stakeRequired",
          "type": "uint256"
        }
      ],
      "name": "postJob",
      "outputs": [],
      "stateMutability": "payable",
      "type": "function"
    },
    {
      "inputs": [
        {
          "internalType": "uint256",
          "name": "_jobId",
          "type": "uint256"
        },
        {
          "internalType": "address",
          "name": "_applicantAddress",
          "type": "address"
        }
      ],
      "name": "rejectApplication",
      "outputs": [],
      "stateMutability": "nonpayable",
      "type": "function"
    },
    {
      "inputs": [],
      "name": "renounceOwnership",
      "outputs": [],
      "stateMutability": "nonpayable",
      "type": "function"
    },
    {
      "inputs": [
        {
          "internalType": "uint256",
          "name": "_jobId",
          "type": "uint256"
        },
        {
          "internalType": "string",
          "name": "_submittedWorkUrl",
          "type": "string"
        }
      ],
      "name": "submitWork",
      "outputs": [],
      "stateMutability": "nonpayable",
      "type": "function"
    },
    {
      "inputs": [],
      "name": "totalPostingFees",
      "outputs": [
        {
          "internalType": "uint256",
          "name": "",
          "type": "uint256"
        }
      ],
      "stateMutability": "view",
      "type": "function"
    },
    {
      "inputs": [
        {
          "internalType": "address",
          "name": "newOwner",
          "type": "address"
        }
      ],
      "name": "transferOwnership",
      "outputs": [],
      "stateMutability": "nonpayable",
      "type": "function"
    },
    {
      "inputs": [],
      "name": "withdrawFees",
      "outputs": [],
      "stateMutability": "nonpayable",
      "type": "function"
    }
  ],
  "bytecode": "0x60803460c557601f61268738819003918201601f19168301916001600160401b0383118484101760ca5780849260209460405283398101031260c557516001600160a01b0381169081900360c557801560af57600080546001600160a01b031981168317825560405192916001600160a01b03909116907f8be0079c531659141344cd1fd0a4f28419497f9722a3daafe3b4186f6b6457e09080a36001805560016002556125a690816100e18239f35b631e4fbdf760e01b600052600060045260246000fd5b600080fd5b634e487b7160e01b600052604160045260246000fdfe6080604052600436101561001257600080fd5b60003560e01c8063180aedf3146120a85780633169f6b9146120865780633aee79961461205b5780633d01e0fa14611d55578063476343ee14611c8c578063604d67ee14611c6e578063627b594b14611a175780636c09a5e314611620578063715018a6146115c75780637a870b631461153f5780637eb1d86914610bd3578063832a05b714610b0f5780638da5cb5b14610ae6578063bf22c45714610953578063ca5e307714610699578063d4c6077b1461066d578063da8accf914610334578063f2fde38b146102a75763f50ddb67146100ed57600080fd5b60203660031901126102a257600435610104612525565b6000818152600360205260409020600881015460101c6001600160a01b03163303610249576007015434036102055733600052600660205260406000208160005260205260026101666040600020548360005260046020526040600020612418565b500180546101a457349055604051903482527f6d05e0b8421b50299773e7e996a3c3b093e33b0a4ea79042670118348c9e818060203393a360018055005b60405162461bcd60e51b815260206004820152603360248201527f5374616b652068617320616c7265616479206265656e206c6f636b656420666f60448201527239103a3434b99030b8383634b1b0ba34b7b71760691b6064820152608490fd5b606460405162461bcd60e51b815260206004820152602060248201527f496e636f7272656374207374616b6520616d6f756e742070726f76696465642e6044820152fd5b60405162461bcd60e51b815260206004820152602b60248201527f4f6e6c7920746865206163636570746564206170706c6963616e742063616e2060448201526a3637b1b59039ba30b5b29760a91b6064820152608490fd5b600080fd5b346102a25760203660031901126102a2576004356001600160a01b038116908190036102a2576102d5612547565b801561031e57600080546001600160a01b03198116831782556001600160a01b0316907f8be0079c531659141344cd1fd0a4f28419497f9722a3daafe3b4186f6b6457e09080a3005b631e4fbdf760e01b600052600060045260246000fd5b346102a257610342366123d0565b9061034b612525565b6000818152600360205260409020600881015460101c6001600160a01b031633036106125781600052600460205260026103a4604060002033600052600660205260406000208560005260205260406000205490612418565b5001546007820154036105b857600a81019060ff8254166105745783511561052f5760090183516001600160401b038111610519576103e382546121e1565b601f81116104d1575b50806020601f821160011461046e57600091610463575b508160011b916000199060031b1c19161790555b600160ff198254161790557fd5d9bc882dc95f198786a74e52a0b87e49a07c80921b74821ba374339e394d30604051602081528061045a33956020830190612317565b0390a360018055005b905085015186610403565b60008481528181209250601f198416905b8181106104b9575090836001949392106104a0575b5050811b019055610417565b87015160001960f88460031b161c191690558680610494565b9192602060018192868c01518155019401920161047f565b826000526020600020601f830160051c8101916020841061050f575b601f0160051c01905b81811061050357506103ec565b600081556001016104f6565b90915081906104ed565b634e487b7160e01b600052604160045260246000fd5b60405162461bcd60e51b815260206004820152601960248201527f576f726b2055524c2063616e6e6f7420626520656d7074792e000000000000006044820152606490fd5b606460405162461bcd60e51b815260206004820152602060248201527f576f726b2068617320616c7265616479206265656e207375626d69747465642e6044820152fd5b60405162461bcd60e51b815260206004820152602c60248201527f5374616b65206d757374206265206c6f636b6564206265666f7265207375626d60448201526b34ba3a34b733903bb7b9359760a11b6064820152608490fd5b60405162461bcd60e51b815260206004820152602d60248201527f4f6e6c792074686520616363657074656420667265656c616e6365722063616e60448201526c1039bab136b4ba103bb7b9359760991b6064820152608490fd5b346102a25760203660031901126102a25760043560005260046020526020604060002054604051908152f35b346102a25760403660031901126102a2576004356106b5612358565b906106be612525565b600081815260036020526040902060018101546001600160a01b031633036108f95760ff60086106f492015460081c1615612487565b60008181526004602052604081205490926001600160a01b0316835b828110610763575b50505050156107275760018055005b60405162461bcd60e51b815260206004820152601460248201527320b8383634b1b0b73a103737ba103337bab7321760611b6044820152606490fd5b83600052600460205261077a816040600020612418565b5080546001600160a01b031683146107955750600101610710565b925050919250600381019060ff82541660038110156108e357610892576002918260ff1982541617905501805480610801575b50506001917f7f377577ca47c46a7772ffd12220cca0d4ce6da27ce432ac39b8d24d887d4b4d602060405160028152a381808080610718565b600080808093865af1610812612457565b501561084d57827f0d736493ece6b7d52e34dd028d3d9d0aa75de37339f3da6b3514e70e231ed2a56020849354604051908152a382806107c8565b60405162461bcd60e51b815260206004820152601760248201527f4661696c656420746f2072657475726e207374616b652e0000000000000000006044820152606490fd5b60405162461bcd60e51b8152602060048201526024808201527f4170706c69636174696f6e206973206e6f7420696e2050656e64696e6720737460448201526330ba329760e11b6064820152608490fd5b634e487b7160e01b600052602160045260246000fd5b60405162461bcd60e51b815260206004820152602c60248201527f4f6e6c792074686520656d706c6f7965722063616e2072656a65637420616e2060448201526b30b8383634b1b0ba34b7b71760a11b6064820152608490fd5b346102a25760203660031901126102a2576004356000526003602052604060002060405161098081612236565b8154815260018201546001600160a01b031660208201908152906109a660028401612273565b92604082019384526109ba60038201612273565b90606083019182526109ce60048201612273565b9260808101938452610acc600583015460a08301908152610abe60068501549660c08501978852610ab060078701549560e0810196875260ff600a60088a01549961010084019a83811615158c52838160081c16151561012086015260018060a01b039060101c16610140850152610a4860098201612273565b6101608501520154818116151561018084015260081c1615156101a0820152610a73885115156124e3565b519960018060a01b039051169a519751915193519851955196511515976040519b8c9b8c5260208c015261012060408c01526101208b0190612317565b9089820360608b0152612317565b908782036080890152612317565b9360a086015260c085015260e08401526101008301520390f35b346102a25760003660031901126102a2576000546040516001600160a01b039091168152602090f35b346102a257610b33610b2036612402565b9060005260046020526040600020612418565b5060405190610b418261221b565b80546001600160a01b03168252610b5a60018201612273565b906020830191825260ff60036002830154926040860193845201541692606081019360038110156108e357845260018060a01b03905116915192519060038210156108e35751610bca610bbf6040519586958652608060208701526080860190612317565b92604085019061244a565b60608301520390f35b60c03660031901126102a2576004356001600160401b0381116102a257610bfe903690600401612389565b6024356001600160401b0381116102a257610c1d903690600401612389565b6044356001600160401b0381116102a257610c3c903690600401612389565b60643592610c48612525565b836611c37937e0800001806611c37937e080001161102d5734036114d4578051156114965782511561145157831561140257608435156113b15760a4351561136d576002549260405192610c9b84612236565b8484523360208501528260408501528160608501528060808501528560a085015260843560c085015260a43560e0850152600161010085015260006101208501526000610140850152602093604051610cf48682612252565b60008152610160820152600061018082015260006101a0820152856000526003855260406000208151815560018060a01b03602083015116600182019060018060a01b03166bffffffffffffffffffffffff60a01b82541617905560408201518051906001600160401b038211610519578190610d7460028501546121e1565b601f811161131c575b508890601f83116001146112ab576000926112a0575b50508160011b916000199060031b1c19161760028201555b60608201518051906001600160401b038211610519578190610dd060038501546121e1565b601f811161124f575b508890601f83116001146111de576000926111d3575b50508160011b916000199060031b1c19161760038201555b60808201518051906001600160401b038211610519578190610e2c60048501546121e1565b601f8111611182575b508890601f831160011461111157600092611106575b50508160011b916000199060031b1c19161760048201555b60a0820151600582015560c0820151600682015560e08201516007820155610ee960088201610ea56101008501511515829060ff801983541691151516179055565b610120840151815461ff00191690151560081b61ff0016178155610140840151815462010000600160b01b03191660109190911b62010000600160b01b0316179055565b600981016101608301518051906001600160401b03821161051957610f0e83546121e1565b601f81116110c0575b508890601f831160011461104e579282600a93610f889796936101a096600092611043575b50508160011b916000199060031b1c19161790555b0191610f706101808201511515849060ff801983541691151516179055565b0151815461ff00191690151560081b61ff0016179055565b600254600019811461102d576001016002556007546611c37937e08000810180911161102d577f87741f21e9a393f09a855ddaba43c5051f52da1b634991e2b6f05abc24a4e4619461100b93610ffd92600755610ff06040519660c0885260c0880190612317565b9186830390870152612317565b908382036040850152612317565b936060820152608435608082015260a43560a08201528033940390a360018055005b634e487b7160e01b600052601160045260246000fd5b015190508e80610f3c565b90601f19831691846000528a6000209260005b8c8282106110aa57505093610f889796936101a0969360019383600a9810611091575b505050811b019055610f51565b015160001960f88460031b161c191690558e8080611084565b6001859682939686015181550195019301611061565b8360005289600020601f840160051c8101918b85106110fc575b601f0160051c01905b8181106110f05750610f17565b600081556001016110e3565b90915081906110da565b015190508a80610e4b565b92506004840160005288600020906000935b8a601f198516861061116957506001945083601f19811610611150575b505050811b016004820155610e63565b015160001960f88460031b161c191690558a8080611140565b8282015184559485019460019093019290910190611123565b9091506004840160005288600020601f840160051c81018a85106111cc575b90849392915b601f830160051c820181106111bd575050610e35565b600081558594506001016111a7565b50806111a1565b015190508a80610def565b92506003840160005288600020906000935b8a601f198516861061123657506001945083601f1981161061121d575b505050811b016003820155610e07565b015160001960f88460031b161c191690558a808061120d565b82820151845594850194600190930192909101906111f0565b9091506003840160005288600020601f840160051c81018a8510611299575b90849392915b601f830160051c8201811061128a575050610dd9565b60008155859450600101611274565b508061126e565b015190508a80610d93565b92506002840160005288600020906000935b8a601f198516861061130357506001945083601f198116106112ea575b505050811b016002820155610dab565b015160001960f88460031b161c191690558a80806112da565b82820151845594850194600190930192909101906112bd565b9091506002840160005288600020601f840160051c81018a8510611366575b90849392915b601f830160051c82018110611357575050610d7d565b60008155859450600101611341565b508061133b565b606460405162461bcd60e51b815260206004820152602060248201527f5374616b65206d7573742062652067726561746572207468616e207a65726f2e6044820152fd5b60405162461bcd60e51b815260206004820152602360248201527f4475726174696f6e206d7573742062652067726561746572207468616e207a6560448201526239379760e91b6064820152608490fd5b60405162461bcd60e51b815260206004820152602160248201527f427564676574206d7573742062652067726561746572207468616e207a65726f6044820152601760f91b6064820152608490fd5b60405162461bcd60e51b815260206004820152601c60248201527f4465736372697074696f6e2063616e6e6f7420626520656d7074792e000000006044820152606490fd5b60405162461bcd60e51b81526020600482015260166024820152752a34ba36329031b0b73737ba1031329032b6b83a3c9760511b6044820152606490fd5b60405162461bcd60e51b815260206004820152603760248201527f496e636f727265637420616d6f756e742070726f766964656420286e6565647360448201527f20706f7374696e6720666565202b20627564676574292e0000000000000000006064820152608490fd5b346102a25761154d36612402565b90600052600460205260406000209081548110156102a25761156e91612418565b5080546001600160a01b031661158660018301612273565b916115c360ff60036002840154930154166115b36040519586958652608060208701526080860190612317565b926040850152606084019061244a565b0390f35b346102a25760003660031901126102a2576115e0612547565b600080546001600160a01b0319811682556001600160a01b03167f8be0079c531659141344cd1fd0a4f28419497f9722a3daafe3b4186f6b6457e08280a3005b346102a25761162e366123d0565b611636612525565b816000526003602052604060002060088101549061165660ff83166124e3565b600101546001600160a01b031633146119c15760081c60ff166119615733600052600560205260406000208260005260205260ff6040600020541661190d57816000526004602052604060002090604051926116b18461221b565b33845260208401938285526040810160008152606082019460008652805468010000000000000000811015610519576116ef91600182018155612418565b9290926118f7575182546001600160a01b0319166001600160a01b03919091161782559451805190959060018301906001600160401b0381116105195761173682546121e1565b601f81116118af575b506020601f821160011461184557819060039697989960009261183a575b50508160011b9160001990871b1c19161790555b5160028201550192519260038410156108e35760009360ff8019835416911617905533835260056020526040832081845260205260408320600160ff198254161790558083526004602052604083205460001981019081116118265733845260066020526040842082855260205260408420557fdade408e5cd612a74423eb497e77aa7bf6749f2d6e0906d1cba11c6d1bad1964604051602081528061181c33956020830190612317565b0390a36001805580f35b634e487b7160e01b84526011600452602484fd5b01519050898061175d565b601f1982169883600052816000209960005b81811061189757509160039798999a9184600195941061187f575b505050811b019055611771565b015160001983891b60f8161c19169055898080611872565b838301518c556001909b019a60209384019301611857565b826000526020600020601f830160051c810191602084106118ed575b601f0160051c01905b8181106118e1575061173f565b600081556001016118d4565b90915081906118cb565b634e487b7160e01b600052600060045260246000fd5b60405162461bcd60e51b815260206004820152602660248201527f596f75206861766520616c7265616479206170706c69656420666f722074686960448201526539903537b11760d11b6064820152608490fd5b60405162461bcd60e51b815260206004820152603260248201527f467265656c616e63657220666f722074686973206a6f622068617320616c726560448201527130b23c903132b2b71039b2b632b1ba32b21760711b6064820152608490fd5b60405162461bcd60e51b815260206004820152602860248201527f456d706c6f7965722063616e6e6f74206170706c7920666f722074686569722060448201526737bbb7103537b11760c11b6064820152608490fd5b346102a25760403660031901126102a257600435611a33612358565b611a3b612525565b600082815260036020526040902060018101546001600160a01b03163303611c1457600883910191611a7460ff845460081c1615612487565b600082815260046020526040812054909384936001600160a01b038416915b838610611afd578615611aa65760018055005b60405162461bcd60e51b815260206004820152602960248201527f4170706c6963616e74206e6f7420666f756e64206f7220616c726561647920706044820152683937b1b2b9b9b2b21760b91b6064820152608490fd5b909192939495826000526004602052611b1a876040600020612418565b5080549091906001600160a01b03168503611ba85750600301805460ff19166001179055805462010000600160b01b031916601086901b62010000600160b01b031617815561010061ff00198254161781556001809684847f7f377577ca47c46a7772ffd12220cca0d4ce6da27ce432ac39b8d24d887d4b4d60206040518c8152a35b019493929190611a93565b96600382019160ff8354169260038410156108e35760019315611bcd575b5050611b9d565b600260ff19825416179055828060a01b03905416847f7f377577ca47c46a7772ffd12220cca0d4ce6da27ce432ac39b8d24d887d4b4d602060405160028152a38880611bc6565b60405162461bcd60e51b815260206004820152602c60248201527f4f6e6c792074686520656d706c6f7965722063616e2061636365707420616e2060448201526b30b8383634b1b0ba34b7b71760a11b6064820152608490fd5b346102a25760003660031901126102a2576020600754604051908152f35b346102a25760003660031901126102a257611ca5612547565b6007548015611d19576000808080938160075560018060a01b038254165af1611ccc612457565b5015611cd457005b60405162461bcd60e51b815260206004820152601860248201527f4661696c656420746f20776974686472617720666565732e00000000000000006044820152606490fd5b60405162461bcd60e51b81526020600482015260146024820152732737903332b2b9903a37903bb4ba34323930bb9760611b6044820152606490fd5b346102a25760203660031901126102a257600435611d71612525565b600081815260036020526040902060018101549091906001600160a01b031633036120065760088201805460101c6001600160a01b03168015611fb557600a840190815460ff811615611f715760081c60ff16611f18578060005260066020526040600020846000526020526002611dfb6040600020548660005260046020526040600020612418565b5001549460078101548603611ed3576005015494850180951161102d57600080808781945af1611e29612457565b5015611e7c57805461ff0019166101001790555460405192835260101c6001600160a01b0316917f0803deed35188b93d8ce36327912757bc01e378ca30fd0b7238d061bfb60664090602090a360018055005b60405162461bcd60e51b815260206004820152602960248201527f4661696c656420746f207472616e73666572207061796d656e7420746f20667260448201526832b2b630b731b2b91760b91b6064820152608490fd5b60405162461bcd60e51b815260206004820152601d60248201527f5374616b656420616d6f756e74206973206e6f7420636f72726563742e0000006044820152606490fd5b60405162461bcd60e51b815260206004820152602b60248201527f5061796d656e742068617320616c7265616479206265656e206d61646520666f60448201526a39103a3434b9903537b11760a91b6064820152608490fd5b606460405162461bcd60e51b815260206004820152602060248201527f576f726b20686173206e6f74206265656e207375626d6974746564207965742e6044820152fd5b60405162461bcd60e51b8152602060048201526024808201527f4e6f20667265656c616e63657220686173206265656e206163636570746564206044820152633cb2ba1760e11b6064820152608490fd5b60405162461bcd60e51b815260206004820152602760248201527f4f6e6c792074686520656d706c6f7965722063616e20617070726f766520746860448201526632903bb7b9359760c91b6064820152608490fd5b346102a25760003660031901126102a257600254600019810190811161102d57602090604051908152f35b346102a25760003660031901126102a25760206040516611c37937e080008152f35b346102a25760203660031901126102a2576004356000908152600360205260409020805460018201546001600160a01b0316916120e760028201612273565b906120f460038201612273565b61210060048301612273565b9060058301549160068401546007850154916008860154936009870161212590612273565b96600a0154976040519a8b9a8b5260208b015260408a016101c090526101c08a0161214f91612317565b89810360608b015261216091612317565b88810360808a015261217191612317565b60a088019490945260c087015260e086015260ff8181161515610100870152600882901c16151561012086015260101c6001600160a01b03166101408501528381036101608501526121c291612317565b9060ff8116151561018084015260081c60ff1615156101a08301520390f35b90600182811c92168015612211575b60208310146121fb57565b634e487b7160e01b600052602260045260246000fd5b91607f16916121f0565b608081019081106001600160401b0382111761051957604052565b6101c081019081106001600160401b0382111761051957604052565b90601f801991011681019081106001600160401b0382111761051957604052565b9060405191826000825492612287846121e1565b80845293600181169081156122f557506001146122ae575b506122ac92500383612252565b565b90506000929192526020600020906000915b8183106122d95750509060206122ac928201013861229f565b60209193508060019154838589010152019101909184926122c0565b9050602092506122ac94915060ff191682840152151560051b8201013861229f565b919082519283825260005b848110612343575050826000602080949584010152601f8019910116010190565b80602080928401015182828601015201612322565b602435906001600160a01b03821682036102a257565b6001600160401b03811161051957601f01601f191660200190565b81601f820112156102a2578035906123a08261236e565b926123ae6040519485612252565b828452602083830101116102a257816000926020809301838601378301015290565b9060406003198301126102a25760043591602435906001600160401b0382116102a2576123ff91600401612389565b90565b60409060031901126102a2576004359060243590565b80548210156124345760005260206000209060021b0190600090565b634e487b7160e01b600052603260045260246000fd5b9060038210156108e35752565b3d15612482573d906124688261236e565b916124766040519384612252565b82523d6000602084013e565b606090565b1561248e57565b60405162461bcd60e51b815260206004820152602760248201527f4120667265656c616e6365722068617320616c7265616479206265656e20616360448201526631b2b83a32b21760c91b6064820152608490fd5b156124ea57565b60405162461bcd60e51b81526020600482015260136024820152722537b1103237b2b9903737ba1032bc34b9ba1760691b6044820152606490fd5b600260015414612536576002600155565b633ee5aeb560e01b60005260046000fd5b6000546001600160a01b0316330361255b57565b63118cdaa760e01b6000523360045260246000fdfea2646970667358221220c2d1276a6b74000a4dd1bee8f5a3fd92a4b629ed53b3d3473520a0a0e21883a064736f6c634300081c0033",
  "linkReferences": {},
  "deployedLinkReferences": {}
}